{
  "contractName": "EHR",
  "abi": [
    {
      "anonymous": false,
      "inputs": [
        {
          "indexed": false,
          "internalType": "address",
          "name": "doctorId",
          "type": "address"
        }
      ],
      "name": "DoctorAdded",
      "type": "event"
    },
    {
      "anonymous": false,
      "inputs": [
        {
          "indexed": false,
          "internalType": "address",
          "name": "labId",
          "type": "address"
        }
      ],
      "name": "LabAdded",
      "type": "event"
    },
    {
      "anonymous": false,
      "inputs": [
        {
          "indexed": false,
          "internalType": "address",
          "name": "patientId",
          "type": "address"
        }
      ],
      "name": "PatientAdded",
      "type": "event"
    },
    {
      "anonymous": false,
      "inputs": [
        {
          "indexed": false,
          "internalType": "address",
          "name": "patientId",
          "type": "address"
        },
        {
          "indexed": false,
          "internalType": "address",
          "name": "doctorId",
          "type": "address"
        }
      ],
      "name": "RecordAdded",
      "type": "event"
    },
    {
      "inputs": [
        {
          "internalType": "address",
          "name": "",
          "type": "address"
        }
      ],
      "name": "doctors",
      "outputs": [
        {
          "internalType": "address",
          "name": "id",
          "type": "address"
        },
        {
          "internalType": "string",
          "name": "name",
          "type": "string"
        },
        {
          "internalType": "string",
          "name": "specialization",
          "type": "string"
        },
        {
          "internalType": "string",
          "name": "username",
          "type": "string"
        }
      ],
      "stateMutability": "view",
      "type": "function",
      "constant": true
    },
    {
      "inputs": [
        {
          "internalType": "address",
          "name": "",
          "type": "address"
        }
      ],
      "name": "labs",
      "outputs": [
        {
          "internalType": "address",
          "name": "id",
          "type": "address"
        },
        {
          "internalType": "string",
          "name": "name",
          "type": "string"
        },
        {
          "internalType": "string",
          "name": "phone",
          "type": "string"
        },
        {
          "internalType": "string",
          "name": "add",
          "type": "string"
        },
        {
          "internalType": "string",
          "name": "username",
          "type": "string"
        }
      ],
      "stateMutability": "view",
      "type": "function",
      "constant": true
    },
    {
      "inputs": [
        {
          "internalType": "address",
          "name": "",
          "type": "address"
        }
      ],
      "name": "patients",
      "outputs": [
        {
          "internalType": "address",
          "name": "id",
          "type": "address"
        },
        {
          "internalType": "string",
          "name": "name",
          "type": "string"
        },
        {
          "internalType": "string",
          "name": "ABHAId",
          "type": "string"
        },
        {
          "internalType": "string",
          "name": "gender",
          "type": "string"
        },
        {
          "internalType": "uint256",
          "name": "age",
          "type": "uint256"
        }
      ],
      "stateMutability": "view",
      "type": "function",
      "constant": true
    },
    {
      "inputs": [
        {
          "internalType": "string",
          "name": "_name",
          "type": "string"
        },
        {
          "internalType": "string",
          "name": "_ABHAid",
          "type": "string"
        },
        {
          "internalType": "string",
          "name": "_gender",
          "type": "string"
        },
        {
          "internalType": "uint256",
          "name": "_age",
          "type": "uint256"
        }
      ],
      "name": "addPatient",
      "outputs": [],
      "stateMutability": "nonpayable",
      "type": "function"
    },
    {
      "inputs": [
        {
          "internalType": "string",
          "name": "_name",
          "type": "string"
        },
        {
          "internalType": "string",
          "name": "_username",
          "type": "string"
        },
        {
          "internalType": "string",
          "name": "_specialization",
          "type": "string"
        }
      ],
      "name": "addDoctor",
      "outputs": [],
      "stateMutability": "nonpayable",
      "type": "function"
    },
    {
      "inputs": [
        {
          "internalType": "string",
          "name": "_name",
          "type": "string"
        },
        {
          "internalType": "string",
          "name": "_phone",
          "type": "string"
        },
        {
          "internalType": "string",
          "name": "_address",
          "type": "string"
        },
        {
          "internalType": "string",
          "name": "_username",
          "type": "string"
        }
      ],
      "name": "addLab",
      "outputs": [],
      "stateMutability": "nonpayable",
      "type": "function"
    },
    {
      "inputs": [
        {
          "internalType": "string[]",
          "name": "_fileNames",
          "type": "string[]"
        },
        {
          "internalType": "string",
          "name": "_notes",
          "type": "string"
        },
        {
          "internalType": "address",
          "name": "_patientId",
          "type": "address"
        }
      ],
      "name": "addRecord",
      "outputs": [],
      "stateMutability": "nonpayable",
      "type": "function"
    },
    {
      "inputs": [
        {
          "internalType": "address",
          "name": "_patientId",
          "type": "address"
        }
      ],
      "name": "getRecords",
      "outputs": [
        {
          "components": [
            {
              "internalType": "uint256",
              "name": "date",
              "type": "uint256"
            },
            {
              "internalType": "string",
              "name": "uploaderName",
              "type": "string"
            },
            {
              "internalType": "string",
              "name": "specialization",
              "type": "string"
            },
            {
              "internalType": "string[]",
              "name": "images",
              "type": "string[]"
            },
            {
              "internalType": "string",
              "name": "notes",
              "type": "string"
            }
          ],
          "internalType": "struct EHR.Result[10]",
          "name": "",
          "type": "tuple[10]"
        }
      ],
      "stateMutability": "view",
      "type": "function",
      "constant": true
    }
  ],
  "bytecode": "0x608060405234801561001057600080fd5b50612821806100206000396000f3fe608060405234801561001057600080fd5b50600436106100885760003560e01c80635911bc2d1161005b5780635911bc2d1461012d578063a0076e8414610149578063a9583c2214610179578063ba607fd7146101ac57610088565b80630869cfbc1461008d578063277d5891146100c1578063312d4241146100f557806354d9a4e614610111575b600080fd5b6100a760048036038101906100a29190611ac1565b6101c8565b6040516100b8959493929190611baf565b60405180910390f35b6100db60048036038101906100d69190611ac1565b6103b6565b6040516100ec959493929190611c17565b60405180910390f35b61010f600480360381019061010a9190611de7565b61062c565b005b61012b60048036038101906101269190611f88565b61082d565b005b61014760048036038101906101429190612013565b610da0565b005b610163600480360381019061015e9190611ac1565b610f92565b6040516101709190612316565b60405180910390f35b610193600480360381019061018e9190611ac1565b61148d565b6040516101a39493929190612338565b60405180910390f35b6101c660048036038101906101c19190612392565b611675565b005b60006020528060005260406000206000915090508060000160009054906101000a900473ffffffffffffffffffffffffffffffffffffffff169080600101805461021190612498565b80601f016020809104026020016040519081016040528092919081815260200182805461023d90612498565b801561028a5780601f1061025f5761010080835404028352916020019161028a565b820191906000526020600020905b81548152906001019060200180831161026d57829003601f168201915b50505050509080600201805461029f90612498565b80601f01602080910402602001604051908101604052809291908181526020018280546102cb90612498565b80156103185780601f106102ed57610100808354040283529160200191610318565b820191906000526020600020905b8154815290600101906020018083116102fb57829003601f168201915b50505050509080600301805461032d90612498565b80601f016020809104026020016040519081016040528092919081815260200182805461035990612498565b80156103a65780601f1061037b576101008083540402835291602001916103a6565b820191906000526020600020905b81548152906001019060200180831161038957829003601f168201915b5050505050908060040154905085565b60026020528060005260406000206000915090508060000160009054906101000a900473ffffffffffffffffffffffffffffffffffffffff16908060010180546103ff90612498565b80601f016020809104026020016040519081016040528092919081815260200182805461042b90612498565b80156104785780601f1061044d57610100808354040283529160200191610478565b820191906000526020600020905b81548152906001019060200180831161045b57829003601f168201915b50505050509080600201805461048d90612498565b80601f01602080910402602001604051908101604052809291908181526020018280546104b990612498565b80156105065780601f106104db57610100808354040283529160200191610506565b820191906000526020600020905b8154815290600101906020018083116104e957829003601f168201915b50505050509080600301805461051b90612498565b80601f016020809104026020016040519081016040528092919081815260200182805461054790612498565b80156105945780601f1061056957610100808354040283529160200191610594565b820191906000526020600020905b81548152906001019060200180831161057757829003601f168201915b5050505050908060040180546105a990612498565b80601f01602080910402602001604051908101604052809291908181526020018280546105d590612498565b80156106225780601f106105f757610100808354040283529160200191610622565b820191906000526020600020905b81548152906001019060200180831161060557829003601f168201915b5050505050905085565b3373ffffffffffffffffffffffffffffffffffffffff166000803373ffffffffffffffffffffffffffffffffffffffff1673ffffffffffffffffffffffffffffffffffffffff16815260200190815260200160002060000160009054906101000a900473ffffffffffffffffffffffffffffffffffffffff1673ffffffffffffffffffffffffffffffffffffffff16036106fb576040517f08c379a00000000000000000000000000000000000000000000000000000000081526004016106f290612515565b60405180910390fd5b60006040518060a001604052803373ffffffffffffffffffffffffffffffffffffffff168152602001868152602001858152602001848152602001838152509050806000803373ffffffffffffffffffffffffffffffffffffffff1673ffffffffffffffffffffffffffffffffffffffff16815260200190815260200160002060008201518160000160006101000a81548173ffffffffffffffffffffffffffffffffffffffff021916908373ffffffffffffffffffffffffffffffffffffffff16021790555060208201518160010190805190602001906107de92919061188b565b5060408201518160020190805190602001906107fb92919061188b565b50606082015181600301908051906020019061081892919061188b565b50608082015181600401559050505050505050565b3373ffffffffffffffffffffffffffffffffffffffff16600160003373ffffffffffffffffffffffffffffffffffffffff1673ffffffffffffffffffffffffffffffffffffffff16815260200190815260200160002060000160009054906101000a900473ffffffffffffffffffffffffffffffffffffffff1673ffffffffffffffffffffffffffffffffffffffff16146108fd576040517f08c379a00000000000000000000000000000000000000000000000000000000081526004016108f490612581565b60405180910390fd5b808073ffffffffffffffffffffffffffffffffffffffff166000808373ffffffffffffffffffffffffffffffffffffffff1673ffffffffffffffffffffffffffffffffffffffff16815260200190815260200160002060000160009054906101000a900473ffffffffffffffffffffffffffffffffffffffff1673ffffffffffffffffffffffffffffffffffffffff16146109cd576040517f08c379a00000000000000000000000000000000000000000000000000000000081526004016109c4906125ed565b60405180910390fd5b6000600160003373ffffffffffffffffffffffffffffffffffffffff1673ffffffffffffffffffffffffffffffffffffffff1681526020019081526020016000206001018054610a1c90612498565b80601f0160208091040260200160405190810160405280929190818152602001828054610a4890612498565b8015610a955780601f10610a6a57610100808354040283529160200191610a95565b820191906000526020600020905b815481529060010190602001808311610a7857829003601f168201915b505050505090506000600160003373ffffffffffffffffffffffffffffffffffffffff1673ffffffffffffffffffffffffffffffffffffffff1681526020019081526020016000206002018054610aeb90612498565b80601f0160208091040260200160405190810160405280929190818152602001828054610b1790612498565b8015610b645780601f10610b3957610100808354040283529160200191610b64565b820191906000526020600020905b815481529060010190602001808311610b4757829003601f168201915b5050505050905060008060008673ffffffffffffffffffffffffffffffffffffffff1673ffffffffffffffffffffffffffffffffffffffff1681526020019081526020016000206002018054610bb990612498565b80601f0160208091040260200160405190810160405280929190818152602001828054610be590612498565b8015610c325780601f10610c0757610100808354040283529160200191610c32565b820191906000526020600020905b815481529060010190602001808311610c1557829003601f168201915b5050505050905060006040518060e001604052808381526020018773ffffffffffffffffffffffffffffffffffffffff16815260200142815260200185815260200184815260200189815260200188815250905060038190806001815401808255809150506001900390600052602060002090600702016000909190919091506000820151816000019080519060200190610cce92919061188b565b5060208201518160010160006101000a81548173ffffffffffffffffffffffffffffffffffffffff021916908373ffffffffffffffffffffffffffffffffffffffff160217905550604082015181600201556060820151816003019080519060200190610d3c92919061188b565b506080820151816004019080519060200190610d5992919061188b565b5060a0820151816005019080519060200190610d76929190611911565b5060c0820151816006019080519060200190610d9392919061188b565b5050505050505050505050565b3373ffffffffffffffffffffffffffffffffffffffff16600160003373ffffffffffffffffffffffffffffffffffffffff1673ffffffffffffffffffffffffffffffffffffffff16815260200190815260200160002060000160009054906101000a900473ffffffffffffffffffffffffffffffffffffffff1673ffffffffffffffffffffffffffffffffffffffff1603610e70576040517f08c379a0000000000000000000000000000000000000000000000000000000008152600401610e6790612659565b60405180910390fd5b600060405180608001604052803373ffffffffffffffffffffffffffffffffffffffff16815260200185815260200183815260200184815250905080600160003373ffffffffffffffffffffffffffffffffffffffff1673ffffffffffffffffffffffffffffffffffffffff16815260200190815260200160002060008201518160000160006101000a81548173ffffffffffffffffffffffffffffffffffffffff021916908373ffffffffffffffffffffffffffffffffffffffff1602179055506020820151816001019080519060200190610f4e92919061188b565b506040820151816002019080519060200190610f6b92919061188b565b506060820151816003019080519060200190610f8892919061188b565b5090505050505050565b610f9a611971565b818073ffffffffffffffffffffffffffffffffffffffff166000808373ffffffffffffffffffffffffffffffffffffffff1673ffffffffffffffffffffffffffffffffffffffff16815260200190815260200160002060000160009054906101000a900473ffffffffffffffffffffffffffffffffffffffff1673ffffffffffffffffffffffffffffffffffffffff161461106a576040517f08c379a0000000000000000000000000000000000000000000000000000000008152600401611061906125ed565b60405180910390fd5b611072611971565b60005b600380549050811015611482578473ffffffffffffffffffffffffffffffffffffffff16600382815481106110ad576110ac612679565b5b906000526020600020906007020160010160009054906101000a900473ffffffffffffffffffffffffffffffffffffffff1673ffffffffffffffffffffffffffffffffffffffff160361146f5760006040518060a001604052806003848154811061111b5761111a612679565b5b90600052602060002090600702016002015481526020016003848154811061114657611145612679565b5b9060005260206000209060070201600301805461116290612498565b80601f016020809104026020016040519081016040528092919081815260200182805461118e90612498565b80156111db5780601f106111b0576101008083540402835291602001916111db565b820191906000526020600020905b8154815290600101906020018083116111be57829003601f168201915b50505050508152602001600384815481106111f9576111f8612679565b5b9060005260206000209060070201600401805461121590612498565b80601f016020809104026020016040519081016040528092919081815260200182805461124190612498565b801561128e5780601f106112635761010080835404028352916020019161128e565b820191906000526020600020905b81548152906001019060200180831161127157829003601f168201915b50505050508152602001600384815481106112ac576112ab612679565b5b9060005260206000209060070201600501805480602002602001604051908101604052809291908181526020016000905b828210156113895783829060005260206000200180546112fc90612498565b80601f016020809104026020016040519081016040528092919081815260200182805461132890612498565b80156113755780601f1061134a57610100808354040283529160200191611375565b820191906000526020600020905b81548152906001019060200180831161135857829003601f168201915b5050505050815260200190600101906112dd565b505050508152602001600384815481106113a6576113a5612679565b5b906000526020600020906007020160060180546113c290612498565b80601f01602080910402602001604051908101604052809291908181526020018280546113ee90612498565b801561143b5780601f106114105761010080835404028352916020019161143b565b820191906000526020600020905b81548152906001019060200180831161141e57829003601f168201915b505050505081525090508083600a8461145491906126d7565b600a811061146557611464612679565b5b6020020181905250505b808061147a90612737565b915050611075565b508092505050919050565b60016020528060005260406000206000915090508060000160009054906101000a900473ffffffffffffffffffffffffffffffffffffffff16908060010180546114d690612498565b80601f016020809104026020016040519081016040528092919081815260200182805461150290612498565b801561154f5780601f106115245761010080835404028352916020019161154f565b820191906000526020600020905b81548152906001019060200180831161153257829003601f168201915b50505050509080600201805461156490612498565b80601f016020809104026020016040519081016040528092919081815260200182805461159090612498565b80156115dd5780601f106115b2576101008083540402835291602001916115dd565b820191906000526020600020905b8154815290600101906020018083116115c057829003601f168201915b5050505050908060030180546115f290612498565b80601f016020809104026020016040519081016040528092919081815260200182805461161e90612498565b801561166b5780601f106116405761010080835404028352916020019161166b565b820191906000526020600020905b81548152906001019060200180831161164e57829003601f168201915b5050505050905084565b3373ffffffffffffffffffffffffffffffffffffffff16600260003373ffffffffffffffffffffffffffffffffffffffff1673ffffffffffffffffffffffffffffffffffffffff16815260200190815260200160002060000160009054906101000a900473ffffffffffffffffffffffffffffffffffffffff1673ffffffffffffffffffffffffffffffffffffffff1603611745576040517f08c379a000000000000000000000000000000000000000000000000000000000815260040161173c906127cb565b60405180910390fd5b60006040518060a001604052803373ffffffffffffffffffffffffffffffffffffffff16815260200186815260200185815260200184815260200183815250905080600260003373ffffffffffffffffffffffffffffffffffffffff1673ffffffffffffffffffffffffffffffffffffffff16815260200190815260200160002060008201518160000160006101000a81548173ffffffffffffffffffffffffffffffffffffffff021916908373ffffffffffffffffffffffffffffffffffffffff160217905550602082015181600101908051906020019061182992919061188b565b50604082015181600201908051906020019061184692919061188b565b50606082015181600301908051906020019061186392919061188b565b50608082015181600401908051906020019061188092919061188b565b509050505050505050565b82805461189790612498565b90600052602060002090601f0160209004810192826118b95760008555611900565b82601f106118d257805160ff1916838001178555611900565b82800160010185558215611900579182015b828111156118ff5782518255916020019190600101906118e4565b5b50905061190d919061199f565b5090565b828054828255906000526020600020908101928215611960579160200282015b8281111561195f57825182908051906020019061194f92919061188b565b5091602001919060010190611931565b5b50905061196d91906119bc565b5090565b604051806101400160405280600a905b6119896119e0565b8152602001906001900390816119815790505090565b5b808211156119b85760008160009055506001016119a0565b5090565b5b808211156119dc57600081816119d39190611a0f565b506001016119bd565b5090565b6040518060a0016040528060008152602001606081526020016060815260200160608152602001606081525090565b508054611a1b90612498565b6000825580601f10611a2d5750611a4c565b601f016020900490600052602060002090810190611a4b919061199f565b5b50565b6000604051905090565b600080fd5b600080fd5b600073ffffffffffffffffffffffffffffffffffffffff82169050919050565b6000611a8e82611a63565b9050919050565b611a9e81611a83565b8114611aa957600080fd5b50565b600081359050611abb81611a95565b92915050565b600060208284031215611ad757611ad6611a59565b5b6000611ae584828501611aac565b91505092915050565b611af781611a83565b82525050565b600081519050919050565b600082825260208201905092915050565b60005b83811015611b37578082015181840152602081019050611b1c565b83811115611b46576000848401525b50505050565b6000601f19601f8301169050919050565b6000611b6882611afd565b611b728185611b08565b9350611b82818560208601611b19565b611b8b81611b4c565b840191505092915050565b6000819050919050565b611ba981611b96565b82525050565b600060a082019050611bc46000830188611aee565b8181036020830152611bd68187611b5d565b90508181036040830152611bea8186611b5d565b90508181036060830152611bfe8185611b5d565b9050611c0d6080830184611ba0565b9695505050505050565b600060a082019050611c2c6000830188611aee565b8181036020830152611c3e8187611b5d565b90508181036040830152611c528186611b5d565b90508181036060830152611c668185611b5d565b90508181036080830152611c7a8184611b5d565b90509695505050505050565b600080fd5b600080fd5b7f4e487b7100000000000000000000000000000000000000000000000000000000600052604160045260246000fd5b611cc882611b4c565b810181811067ffffffffffffffff82111715611ce757611ce6611c90565b5b80604052505050565b6000611cfa611a4f565b9050611d068282611cbf565b919050565b600067ffffffffffffffff821115611d2657611d25611c90565b5b611d2f82611b4c565b9050602081019050919050565b82818337600083830152505050565b6000611d5e611d5984611d0b565b611cf0565b905082815260208101848484011115611d7a57611d79611c8b565b5b611d85848285611d3c565b509392505050565b600082601f830112611da257611da1611c86565b5b8135611db2848260208601611d4b565b91505092915050565b611dc481611b96565b8114611dcf57600080fd5b50565b600081359050611de181611dbb565b92915050565b60008060008060808587031215611e0157611e00611a59565b5b600085013567ffffffffffffffff811115611e1f57611e1e611a5e565b5b611e2b87828801611d8d565b945050602085013567ffffffffffffffff811115611e4c57611e4b611a5e565b5b611e5887828801611d8d565b935050604085013567ffffffffffffffff811115611e7957611e78611a5e565b5b611e8587828801611d8d565b9250506060611e9687828801611dd2565b91505092959194509250565b600067ffffffffffffffff821115611ebd57611ebc611c90565b5b602082029050602081019050919050565b600080fd5b6000611ee6611ee184611ea2565b611cf0565b90508083825260208201905060208402830185811115611f0957611f08611ece565b5b835b81811015611f5057803567ffffffffffffffff811115611f2e57611f2d611c86565b5b808601611f3b8982611d8d565b85526020850194505050602081019050611f0b565b5050509392505050565b600082601f830112611f6f57611f6e611c86565b5b8135611f7f848260208601611ed3565b91505092915050565b600080600060608486031215611fa157611fa0611a59565b5b600084013567ffffffffffffffff811115611fbf57611fbe611a5e565b5b611fcb86828701611f5a565b935050602084013567ffffffffffffffff811115611fec57611feb611a5e565b5b611ff886828701611d8d565b925050604061200986828701611aac565b9150509250925092565b60008060006060848603121561202c5761202b611a59565b5b600084013567ffffffffffffffff81111561204a57612049611a5e565b5b61205686828701611d8d565b935050602084013567ffffffffffffffff81111561207757612076611a5e565b5b61208386828701611d8d565b925050604084013567ffffffffffffffff8111156120a4576120a3611a5e565b5b6120b086828701611d8d565b9150509250925092565b6000600a9050919050565b600081905092915050565b6000819050919050565b6120e381611b96565b82525050565b600082825260208201905092915050565b600061210582611afd565b61210f81856120e9565b935061211f818560208601611b19565b61212881611b4c565b840191505092915050565b600081519050919050565b600082825260208201905092915050565b6000819050602082019050919050565b600061216b83836120fa565b905092915050565b6000602082019050919050565b600061218b82612133565b612195818561213e565b9350836020820285016121a78561214f565b8060005b858110156121e357848403895281516121c4858261215f565b94506121cf83612173565b925060208a019950506001810190506121ab565b50829750879550505050505092915050565b600060a08301600083015161220d60008601826120da565b506020830151848203602086015261222582826120fa565b9150506040830151848203604086015261223f82826120fa565b915050606083015184820360608601526122598282612180565b9150506080830151848203608086015261227382826120fa565b9150508091505092915050565b600061228c83836121f5565b905092915050565b6000602082019050919050565b60006122ac826120ba565b6122b681856120c5565b9350836020820285016122c8856120d0565b8060005b8581101561230457848403895281516122e58582612280565b94506122f083612294565b925060208a019950506001810190506122cc565b50829750879550505050505092915050565b6000602082019050818103600083015261233081846122a1565b905092915050565b600060808201905061234d6000830187611aee565b818103602083015261235f8186611b5d565b905081810360408301526123738185611b5d565b905081810360608301526123878184611b5d565b905095945050505050565b600080600080608085870312156123ac576123ab611a59565b5b600085013567ffffffffffffffff8111156123ca576123c9611a5e565b5b6123d687828801611d8d565b945050602085013567ffffffffffffffff8111156123f7576123f6611a5e565b5b61240387828801611d8d565b935050604085013567ffffffffffffffff81111561242457612423611a5e565b5b61243087828801611d8d565b925050606085013567ffffffffffffffff81111561245157612450611a5e565b5b61245d87828801611d8d565b91505092959194509250565b7f4e487b7100000000000000000000000000000000000000000000000000000000600052602260045260246000fd5b600060028204905060018216806124b057607f821691505b6020821081036124c3576124c2612469565b5b50919050565b7f546869732070617469656e7420616c7265616479206578697374732e00000000600082015250565b60006124ff601c83611b08565b915061250a826124c9565b602082019050919050565b6000602082019050818103600083015261252e816124f2565b9050919050565b7f53656e646572206973206e6f74206120646f63746f7200000000000000000000600082015250565b600061256b601683611b08565b915061257682612535565b602082019050919050565b6000602082019050818103600083015261259a8161255e565b9050919050565b7f50617469656e7420646f6573206e6f7420657869737400000000000000000000600082015250565b60006125d7601683611b08565b91506125e2826125a1565b602082019050919050565b60006020820190508181036000830152612606816125ca565b9050919050565b7f5468697320646f63746f7220616c7265616479206578697374732e0000000000600082015250565b6000612643601b83611b08565b915061264e8261260d565b602082019050919050565b6000602082019050818103600083015261267281612636565b9050919050565b7f4e487b7100000000000000000000000000000000000000000000000000000000600052603260045260246000fd5b7f4e487b7100000000000000000000000000000000000000000000000000000000600052601260045260246000fd5b60006126e282611b96565b91506126ed83611b96565b9250826126fd576126fc6126a8565b5b828206905092915050565b7f4e487b7100000000000000000000000000000000000000000000000000000000600052601160045260246000fd5b600061274282611b96565b91507fffffffffffffffffffffffffffffffffffffffffffffffffffffffffffffffff820361277457612773612708565b5b600182019050919050565b7f54686973206c616220616c7265616479206578697374732e0000000000000000600082015250565b60006127b5601883611b08565b91506127c08261277f565b602082019050919050565b600060208201905081810360008301526127e4816127a8565b905091905056fea26469706673582212200cbfcaadca979e99619fbe821a683f3ae0aee203e4cc141610a8ae9ccab4e51264736f6c634300080e0033",
  "immutableReferences": {},
  "source": "// SPDX-License-Identifier: MIT\n\npragma solidity >=0.7.0 <0.9.0;\n\ncontract EHR {\n    // each record of a patient\n    struct Record {\n        string ABHAid;\n        address id;\n        uint256 date;\n        string uploaderName;\n        string specialization;\n        string[] images;\n        string notes;\n    }\n\n    // Patient Structure\n    struct Patient {\n        address id;\n        string name;\n        string ABHAId;\n        string gender;\n        uint256 age;\n    }\n\n    // Doctor Details Structure\n    struct Doctor {\n        address id;\n        string name;\n        string specialization;\n        string username;\n    }\n\n    // Lab Details Structure\n    struct Lab {\n        address id;\n        string name;\n        string phone;\n        string add;\n        string username;\n    }\n\n    struct Result {\n        uint256 date;\n        string uploaderName;\n        string specialization;\n        string[] images;\n        string notes;\n    }\n\n    // dictionaries of Patients, Doctors and Labs\n\n    mapping(address => Patient) public patients;\n    mapping(address => Doctor) public doctors;\n    mapping(address => Lab) public labs;\n\n    Record[] records;\n\n    // events to emit in case of sign up and add record\n\n    event PatientAdded(address patientId);\n    event DoctorAdded(address doctorId);\n    event LabAdded(address labId);\n    event RecordAdded(address patientId, address doctorId);\n\n    // modifiers\n\n    modifier patientExists(address patientId) {\n        require(patients[patientId].id == patientId, \"Patient does not exist\");\n        _;\n    }\n\n    modifier senderIsDoctor() {\n        require(doctors[msg.sender].id == msg.sender, \"Sender is not a doctor\");\n        _;\n    }\n\n    function addPatient(\n        string memory _name,\n        string memory _ABHAid,\n        string memory _gender,\n        uint256 _age\n    ) public {\n        require(\n            patients[msg.sender].id != msg.sender,\n            \"This patient already exists.\"\n        );\n\n        Patient memory patient = Patient(\n            msg.sender,\n            _name,\n            _ABHAid,\n            _gender,\n            _age\n        );\n        patients[msg.sender] = patient;\n    }\n\n    function addDoctor(\n        string memory _name,\n        string memory _username,\n        string memory _specialization\n    ) public {\n        require(\n            doctors[msg.sender].id != msg.sender,\n            \"This doctor already exists.\"\n        );\n\n        Doctor memory doctor = Doctor(\n            msg.sender,\n            _name,\n            _specialization,\n            _username\n        );\n        doctors[msg.sender] = doctor;\n    }\n\n    function addLab(\n        string memory _name,\n        string memory _phone,\n        string memory _address,\n        string memory _username\n    ) public {\n        require(labs[msg.sender].id != msg.sender, \"This lab already exists.\");\n\n        Lab memory lab = Lab(msg.sender, _name, _phone, _address, _username);\n        labs[msg.sender] = lab;\n    }\n\n    function addRecord(\n        string[] memory _fileNames,\n        string memory _notes,\n        address _patientId\n    ) public senderIsDoctor patientExists(_patientId) {\n        string memory name = doctors[msg.sender].name;\n        string memory spec = doctors[msg.sender].specialization;\n        string memory patientABHA = patients[_patientId].ABHAId;\n        Record memory record = Record(\n            patientABHA,\n            _patientId,\n            block.timestamp,\n            name,\n            spec,\n            _fileNames,\n            _notes\n        );\n        records.push(record);\n    }\n\n    function getRecords(address _patientId)\n        public\n        view\n        patientExists(_patientId)\n        returns (Result[10] memory)\n    {\n        Result[10] memory results;\n        for (uint256 i = 0; i < records.length; i++) {\n            if (records[i].id == _patientId) {\n                Result memory res = Result(\n                    records[i].date,\n                    records[i].uploaderName,\n                    records[i].specialization,\n                    records[i].images,\n                    records[i].notes\n                );\n                results[i%10] = res;\n            }\n        }\n        return results;\n    }\n}\n",
  "sourcePath": "/home/abhisinha08/VS Code/MedVault/truffle/contracts/EHR.sol",
  "compiler": {
    "name": "solc",
    "version": "0.8.14+commit.80d49f37.Emscripten.clang"
  },
  "schemaVersion": "3.4.15",
  "updatedAt": "2023-08-20T09:36:59.484Z",
  "networkType": "ethereum",
  "devdoc": {
    "kind": "dev",
    "methods": {},
    "version": 1
  },
  "userdoc": {
    "kind": "user",
    "methods": {},
    "version": 1
  }
}